{
  "contractName": "Oracle",
  "abi": [
    {
      "inputs": [
        {
          "internalType": "address",
          "name": "_admin",
          "type": "address"
        }
      ],
      "stateMutability": "nonpayable",
      "type": "constructor"
    },
    {
      "inputs": [],
      "name": "admin",
      "outputs": [
        {
          "internalType": "address",
          "name": "",
          "type": "address"
        }
      ],
      "stateMutability": "view",
      "type": "function",
      "constant": true
    },
    {
      "inputs": [
        {
          "internalType": "bytes32",
          "name": "",
          "type": "bytes32"
        }
      ],
      "name": "data",
      "outputs": [
        {
          "internalType": "uint256",
          "name": "date",
          "type": "uint256"
        },
        {
          "internalType": "uint256",
          "name": "payload",
          "type": "uint256"
        }
      ],
      "stateMutability": "view",
      "type": "function",
      "constant": true
    },
    {
      "inputs": [
        {
          "internalType": "address",
          "name": "",
          "type": "address"
        }
      ],
      "name": "reporters",
      "outputs": [
        {
          "internalType": "bool",
          "name": "",
          "type": "bool"
        }
      ],
      "stateMutability": "view",
      "type": "function",
      "constant": true
    },
    {
      "inputs": [
        {
          "internalType": "address",
          "name": "reporter",
          "type": "address"
        },
        {
          "internalType": "bool",
          "name": "isReporter",
          "type": "bool"
        }
      ],
      "name": "updateReporter",
      "outputs": [],
      "stateMutability": "nonpayable",
      "type": "function"
    },
    {
      "inputs": [
        {
          "internalType": "bytes32",
          "name": "key",
          "type": "bytes32"
        },
        {
          "internalType": "uint256",
          "name": "payload",
          "type": "uint256"
        }
      ],
      "name": "updateData",
      "outputs": [],
      "stateMutability": "nonpayable",
      "type": "function"
    },
    {
      "inputs": [
        {
          "internalType": "bytes32",
          "name": "key",
          "type": "bytes32"
        }
      ],
      "name": "getData",
      "outputs": [
        {
          "internalType": "bool",
          "name": "result",
          "type": "bool"
        },
        {
          "internalType": "uint256",
          "name": "date",
          "type": "uint256"
        },
        {
          "internalType": "uint256",
          "name": "payload",
          "type": "uint256"
        }
      ],
      "stateMutability": "view",
      "type": "function",
      "constant": true
    }
  ],
  "bytecode": "0x608060405234801561001057600080fd5b506040516108c23803806108c2833981810160405281019061003291906100db565b806000806101000a81548173ffffffffffffffffffffffffffffffffffffffff021916908373ffffffffffffffffffffffffffffffffffffffff16021790555050610108565b600080fd5b600073ffffffffffffffffffffffffffffffffffffffff82169050919050565b60006100a88261007d565b9050919050565b6100b88161009d565b81146100c357600080fd5b50565b6000815190506100d5816100af565b92915050565b6000602082840312156100f1576100f0610078565b5b60006100ff848285016100c6565b91505092915050565b6107ab806101176000396000f3fe608060405234801561001057600080fd5b50600436106100625760003560e01c80630147fb0c146100675780631ec6e24f146100985780632cc1cd9e146100b457806354f6127f146100e4578063a8200ab714610116578063f851a44014610132575b600080fd5b610081600480360381019061007c9190610423565b610150565b60405161008f929190610469565b60405180910390f35b6100b260048036038101906100ad9190610528565b610174565b005b6100ce60048036038101906100c99190610568565b61025d565b6040516100db91906105a4565b60405180910390f35b6100fe60048036038101906100f99190610423565b61027d565b60405161010d939291906105bf565b60405180910390f35b610130600480360381019061012b9190610622565b6102ee565b005b61013a6103c4565b6040516101479190610671565b60405180910390f35b60026020528060005260406000206000915090508060000154908060010154905082565b60008054906101000a900473ffffffffffffffffffffffffffffffffffffffff1673ffffffffffffffffffffffffffffffffffffffff163373ffffffffffffffffffffffffffffffffffffffff1614610202576040517f08c379a00000000000000000000000000000000000000000000000000000000081526004016101f9906106e9565b60405180910390fd5b80600160008473ffffffffffffffffffffffffffffffffffffffff1673ffffffffffffffffffffffffffffffffffffffff16815260200190815260200160002060006101000a81548160ff0219169083151502179055505050565b60016020528060005260406000206000915054906101000a900460ff1681565b600080600080600260008681526020019081526020016000206000015414156102b05760008060009250925092506102e7565b6001600260008681526020019081526020016000206000015460026000878152602001908152602001600020600101549250925092505b9193909250565b60011515600160003373ffffffffffffffffffffffffffffffffffffffff1673ffffffffffffffffffffffffffffffffffffffff16815260200190815260200160002060009054906101000a900460ff16151514610381576040517f08c379a000000000000000000000000000000000000000000000000000000000815260040161037890610755565b60405180910390fd5b6040518060400160405280428152602001828152506002600084815260200190815260200160002060008201518160000155602082015181600101559050505050565b60008054906101000a900473ffffffffffffffffffffffffffffffffffffffff1681565b600080fd5b6000819050919050565b610400816103ed565b811461040b57600080fd5b50565b60008135905061041d816103f7565b92915050565b600060208284031215610439576104386103e8565b5b60006104478482850161040e565b91505092915050565b6000819050919050565b61046381610450565b82525050565b600060408201905061047e600083018561045a565b61048b602083018461045a565b9392505050565b600073ffffffffffffffffffffffffffffffffffffffff82169050919050565b60006104bd82610492565b9050919050565b6104cd816104b2565b81146104d857600080fd5b50565b6000813590506104ea816104c4565b92915050565b60008115159050919050565b610505816104f0565b811461051057600080fd5b50565b600081359050610522816104fc565b92915050565b6000806040838503121561053f5761053e6103e8565b5b600061054d858286016104db565b925050602061055e85828601610513565b9150509250929050565b60006020828403121561057e5761057d6103e8565b5b600061058c848285016104db565b91505092915050565b61059e816104f0565b82525050565b60006020820190506105b96000830184610595565b92915050565b60006060820190506105d46000830186610595565b6105e1602083018561045a565b6105ee604083018461045a565b949350505050565b6105ff81610450565b811461060a57600080fd5b50565b60008135905061061c816105f6565b92915050565b60008060408385031215610639576106386103e8565b5b60006106478582860161040e565b92505060206106588582860161060d565b9150509250929050565b61066b816104b2565b82525050565b60006020820190506106866000830184610662565b92915050565b600082825260208201905092915050565b7f4f6e6c792041646d696e00000000000000000000000000000000000000000000600082015250565b60006106d3600a8361068c565b91506106de8261069d565b602082019050919050565b60006020820190508181036000830152610702816106c6565b9050919050565b7f4f6e6c79205265706f7274657200000000000000000000000000000000000000600082015250565b600061073f600d8361068c565b915061074a82610709565b602082019050919050565b6000602082019050818103600083015261076e81610732565b905091905056fea2646970667358221220a45ea78acf708d52c9a8f0a9e05d4c885282537b1ae0bdb028e6d66f2995a6f664736f6c634300080a0033",
  "immutableReferences": {},
  "source": "// SPDX-License-Identifier: MIT\npragma solidity >=0.4.22 <0.9.0;\n\ncontract Oracle {\n    struct Data {\n        uint256 date;\n        uint256 payload;\n    }\n\n    address public admin;\n    mapping(address => bool) public reporters;\n    mapping(bytes32 => Data) public data;\n\n    constructor(address _admin) {\n        admin = _admin;\n    }\n\n    modifier onlyAdmin() {\n        require(msg.sender == admin, \"Only Admin\");\n        _;\n    }\n    modifier onlyReporter() {\n        require(reporters[msg.sender] == true, \"Only Reporter\");\n        _;\n    }\n\n    function updateReporter(address reporter, bool isReporter)\n        external\n        onlyAdmin\n    {\n        reporters[reporter] = isReporter;\n    }\n\n    function updateData(bytes32 key, uint256 payload) external onlyReporter {\n        data[key] = Data(block.timestamp, payload);\n    }\n\n    function getData(bytes32 key)\n        external\n        view\n        returns (\n            bool result,\n            uint256 date,\n            uint256 payload\n        )\n    {\n        if (data[key].date == 0) {\n            return (false, 0, 0);\n        }\n        return (true, data[key].date, data[key].payload);\n    }\n}\n",
  "sourcePath": "C:\\Users\\velve\\Desktop\\smart contracts\\oracles\\contracts\\Oracle.sol",
  "compiler": {
    "name": "solc",
    "version": "0.8.10+commit.fc410830.Emscripten.clang"
  },
  "schemaVersion": "3.4.3",
  "updatedAt": "2022-07-13T15:43:41.324Z",
  "networkType": "ethereum",
  "devdoc": {
    "kind": "dev",
    "methods": {},
    "version": 1
  },
  "userdoc": {
    "kind": "user",
    "methods": {},
    "version": 1
  }
}